:020000040800F2
:1000000060060020190200082102000823020008EF
:10001000250200082702000829020008000000004D
:100020000000000000000000000000002B0200089B
:100030002D020008000000002F0200083102000815
:1000400033020008330200083302000833020008BC
:1000500033020008330200083302000833020008AC
:10006000330200083302000833020008330200089C
:10007000330200083302000833020008330200088C
:1000800033020008330200083302000800000000B9
:100090000000000000000000000000003302000823
:1000A000330200083302000833020008330200085C
:1000B000330200083302000833020008330200084C
:1000C000330200083302000833020008330200083C
:1000D0003302000833020008330200080000000069
:1000E0003302000833020008330200080000000059
:1000F00000000000000000000000000033020008C3
:100100000000000033020008330200083302000838
:1001100000000000000000000000000000000000DF
:1001200033020008330200083302000833020008DB
:100130003302000800000000000000000000000082
:100140000000000000000000000000003302000872
:1001500033020008330200083302000833020008AB
:100160003302000833020008000000000000000015
:10017000000000000000000000000000000000007F
:100180000000000033020008000000000000000032
:100190003302000800F002F800F02EF80AA090E800
:1001A000000C82448344AAF10107DA4501D100F032
:1001B00023F8AFF2090EBAE80F0013F0010F18BFD1
:1001C000FB1A43F00103184700050000100500006A
:1001D0000023002400250026103A28BF78C1FBD850
:1001E000520728BF30C148BF0B6070471FB500F0F1
:1001F00059F91FBD10B510BD00F031F81146FFF7D9
:10020000F5FF00F0F9F800F04FF803B4FFF7F2FF44
:1002100003BC00F057F80000094880470948004730
:10022000FEE7FEE7FEE7FEE7FEE7FEE7FEE7FEE7A6
:10023000FEE7FEE704480549054A064B7047000003
:10024000D50200089501000860000020600600202B
:1002500060020020600200207047704770477546BA
:1002600000F02CF8AE4605006946534620F0070022
:10027000854618B020B5FFF7DDFFBDE820404FF000
:1002800000064FF000074FF000084FF0000BAC469F
:10029000ACE8C009ACE8C009ACE8C009ACE8C009EA
:1002A00021F007018D46704710B50446AFF300807A
:1002B0002046BDE81040FFF7A8BF00000048704787
:1002C0000000002001491820ABBEFEE72600020016
:1002D000704700004EF68851CEF20001086840F4E5
:1002E000700008607047000082B00190FFE701983D
:1002F000002813D4FFE700200090FFE7009840F6A5
:100300007A41884205DCFFE7FFE700980130009062
:10031000F4E7FFE7019801380190E8E702B0704781
:1003200080B584B0039040F21441C4F202010191FF
:10033000086840F00100086014200290FFF7D4FF25
:10034000019A029803991423C4F2020319601168F8
:1003500041F005011160FFF7C7FF019A029811688B
:1003600021F004011160FFF7BFFF04B080BD000061
:1003700080B584B0039040F21441C4F202010291AE
:10038000086840F00100086014200190FFF7ACFFFE
:100390000198029A03991423C4F2020319601168A8
:1003A00041F005011160FFF79FFF0299086820F0F6
:1003B0000400086004B080BD80B500F05FF840F232
:1003C0001441C4F20201382008601420FFF78CFFAA
:1003D0003E20FFF7A5FF4020FFF7A2FFB820FFF760
:1003E0009FFFC020FFF79CFF3F20FFF799FF4FF4CE
:1003F0009670FFF779FF80BD80B586B00020009031
:100400000590FFF7D9FFC820FFF76EFF0098039013
:10041000FFE74020019000200390FFE703980428A5
:1004200027D8FFE70398B83002900298FFF778FFCB
:100430000198FFF775FF00200490FFE70498192842
:1004400012D8FFE7039840F2C042C0F600026821CC
:1004500000FB0120049950F82100FFF789FFFFE716
:10046000049801300490E9E7FFE703980130039016
:10047000D4E74FF4FA70FFF737FFCAE743F63001CD
:10048000C4F20201032008600021C4F2020145F217
:100490005550086040F20041C4F2020140F255108C
:1004A00008607047F1EE100A4FF6FF71C0F2C031DC
:1004B00020EA010040F04070E1EE100A70470000B1
:1004C000000000000000000000000000000000002C
:1004D000000000000000000000000000000000001C
:1004E0000000000080000000C0000000E0000000EC
:1004F000F0000000F8000000F8000000000000001C
:1005000000000000000000000000000000000000EB
:1005100000000000000000000000000000000000DB
:1005200000000000000000000000000000000000CB
:1005300000000000000000000000000000000000BB
:1005400000000000000000000000000000000000AB
:100550000000000000000000FF000000FF0000009D
:10056000FF000000FF00000000000000000000008D
:10057000000000000000000000000000000000007B
:10058000000000000000000000000000000000006B
:10059000000000000000000000000000000000005B
:1005A000000000000000000000000000000000004B
:1005B000000000000000000000000000000000003B
:1005C000FF000000FF000000FF000000FF0000002F
:1005D000000000000000000000000000000000001B
:1005E000000000000000000000000000000000000B
:1005F00000000000000000000000000000000000FB
:1006000000000000000000000000000000000000EA
:10061000000000000000000000000000800000005A
:1006200080000000C0000000FF000000FF0000008C
:10063000FF000000FF000000C0000000800000007C
:10064000800000000000000000000000000000002A
:10065000000000000000000000000000000000009A
:10066000000000000000000000000000000000008A
:10067000000000000000000000000000000000007A
:100680000000000001000000010000000100000067
:100690000100000001000000010000000100000056
:1006A0000100000001000000010000000000000047
:1006B000000000000000000000000000000000003A
:1006C0000000000000000000D80600080000002024
:0806D00060060000D0010008E3
:0400000508000219D4
:00000001FF
