:020000040800F2
:1000000060060020190200082102000823020008EF
:10001000250200082702000829020008000000004D
:100020000000000000000000000000002B0200089B
:100030002D020008000000002F0200083102000815
:1000400033020008330200083302000833020008BC
:1000500033020008330200083302000833020008AC
:10006000330200083302000833020008330200089C
:10007000330200083302000833020008330200088C
:1000800033020008330200083302000800000000B9
:100090000000000000000000000000003302000823
:1000A000330200083302000833020008330200085C
:1000B000330200083302000833020008330200084C
:1000C000330200083302000833020008330200083C
:1000D0003302000833020008330200080000000069
:1000E0003302000833020008330200080000000059
:1000F00000000000000000000000000033020008C3
:100100000000000033020008330200083302000838
:1001100000000000000000000000000000000000DF
:1001200033020008330200083302000833020008DB
:100130003302000800000000000000000000000082
:100140000000000000000000000000003302000872
:1001500033020008330200083302000833020008AB
:100160003302000833020008000000000000000015
:10017000000000000000000000000000000000007F
:100180000000000033020008000000000000000032
:100190003302000800F002F800F02EF80AA090E800
:1001A000000C82448344AAF10107DA4501D100F032
:1001B00023F8AFF2090EBAE80F0013F0010F18BFD1
:1001C000FB1A43F0010318474C0400005C040000D4
:1001D0000023002400250026103A28BF78C1FBD850
:1001E000520728BF30C148BF0B6070471FB500F0F1
:1001F00003FA1FBD10B510BD00F06FF81146FFF7F0
:10020000F5FF00F09FF900F08DF803B4FFF7F2FF5F
:1002100003BC00F095F800000948804709480047F2
:10022000FEE7FEE7FEE7FEE7FEE7FEE7FEE7FEE7A6
:10023000FEE7FEE704480549054A064B7047000003
:1002400051030008950100086000002060060020AE
:10025000600200206002002030B44FF0013C50F8F2
:10026000042B51F8043BCCFA52F4D51A20D1FCB936
:1002700050F8042B51F8043BCCFA52F4D51A17D19C
:10028000B4B950F8042B51F8043BCCFA52F4D51A07
:100290000ED16CB950F8042B51F8043BCCFA52F44F
:1002A000D51A05D1002CDAD030BC4FF000007047D1
:1002B00029BAB1FA81F111F01801D1F1200084407E
:1002C000F2D1CA40CB4012F0FF0213F0FF0330BC62
:1002D000D01A7047704770477047754600F02CF889
:1002E000AE4605006946534620F00700854618B023
:1002F00020B5FFF79FFFBDE820404FF000064FF00C
:1003000000074FF000084FF0000BAC46ACE8C00906
:10031000ACE8C009ACE8C009ACE8C00921F00701AD
:100320008D46704710B50446AFF300802046BDE807
:100330001040FFF76ABF000000487047000000202F
:1003400001491820ABBEFEE72600020070470000FE
:100350004EF68851CEF20001086840F47000086043
:100360007047000081B000200090FFE7009813283C
:1003700005DCFFE7FFE7009801300090F6E701B0E9
:100380007047000082B00190FFE70198002813D465
:10039000FFE700200090FFE7009840F67A4188428E
:1003A00005DCFFE7FFE7009801300090F4E7FFE786
:1003B000019801380190E8E702B0704743F6300138
:1003C000C4F20201086840F01400086040F6000121
:1003D000C4F202010020086040F60C01C4F20201E0
:1003E000552008607047000080B584B040F60001D9
:1003F000C4F202014FF4AA40086040F61401C4F2AE
:10040000020100200860FFF7ADFF40F61000C4F2C3
:100410000200006800F00F00029002980F2804D13B
:10042000FFE730208DF80F000AE06120019000F016
:100430003BF83220FFF7A6FF01988DF80F00FFE789
:100440009DF80F0004B080BD80B584B08DF80F001A
:1004500040F61401C4F202010191002002900860EC
:100460009DF80F0040F21441C4F20201086001201F
:100470000090FFF787FF0098019A4FF480511160B8
:10048000FFF780FF0199029808609DF80F0003288C
:1004900004DCFFE70420FFF775FF03E00120FFF70E
:1004A00071FFFFE704B080BD80B584B08DF80F0008
:1004B00040F61401C4F2020100914FF480600190F3
:1004C000086001200290FFF75DFF009A02989DF8F6
:1004D0000F1040F21443C4F2020319604FF4A0510C
:1004E0001160FFF74FFF009A019902981160FFF722
:1004F00049FF04B080BD000080B582B000F066F80E
:100500001E20FFF73FFF30200090FFF79DFF0A20DD
:10051000FFF738FF0098FFF797FF01200190FFF7E2
:1005200031FF0098FFF790FF3820FFF78DFF06207E
:10053000FFF78AFF0198FFF787FF0F20FFF784FF7F
:1005400002B080BD80B582B000200190FFF7D4FFDB
:10055000FFF734FF43F63001C4F20201086840F0AF
:10056000010008600021C4F20201086840F48060C4
:1005700008606F20FFF798FF3220FFF703FF6B2022
:10058000FFF792FF6420FFF7FDFE0120FFF75CFFFD
:100590004FF4FA70FFF7F6FEFFE7FFF725FF8DF83F
:1005A00003009DF803003021FFF756FE30B1FFE74E
:1005B0001421C4F202010020086005E01421C4F2F5
:1005C000020120200860FFE7E7E7000043F6300162
:1005D000C4F202010620086040F20041C4F20201A8
:1005E00045F25550086040F60001C4F20201086867
:1005F00040F0A87008607047F1EE100A4FF6FF71E6
:10060000C0F2C03120EA010040F04070E1EE100A73
:10061000704700002406000800000020600600006B
:04062000D0010008FD
:0400000508000219D4
:00000001FF
